:100000000C943E000C945B000C945B000C945B0021
:100010000C945B000C945B000C945B000C945B00F4
:100020000C945B000C945B000C945B000C945B00E4
:100030000C945B000C94CB010C945B000C945B0063
:100040000C945B000C945B000C945B000C945B00C4
:100050000C945B000C945B000C945B000C945B00B4
:100060000C945B000C945B000C945B000C945B00A4
:100070000C945B000C945B000C945B0011241FBE7D
:10008000CFEFD8E0DEBFCDBF11E0A0E0B1E0E2E607
:10009000F8E002C005900D92A231B107D9F721E036
:1000A000A2E1B1E001C01D92A337B207E1F70E94BF
:1000B0009A000C942F040C940000982F919589239A
:1000C0008031E9F0A0F48430E1F048F4813001F1AE
:1000D00091E0823009F090E0892F880F089591E037
:1000E000883009F090E0892F880F880F08958034B8
:1000F00051F0803851F0803251F486E0089585E067
:10010000089583E0089587E0089588E0089580E0E9
:10011000089511B88FEF82B987B988B9209A2898C5
:100120008AB18E608AB98AB18F788AB98BB18E67AD
:100130008BB908950E9489000E94B302E4E2F1E0C5
:1001400061E052E043E034E025E096E087E0108291
:1001500061835283438334832583968387833896D0
:1001600071E0E436F70799F70E94A5037894CC2450
:10017000CA94EE24EA9411E084E0F82E02E093E0C1
:10018000D92E8091120190911301981751F00E947D
:1001900086028091120180931301E8B88BB18E60C2
:1001A0008BB980911301813071F1823009F4AAC0BA
:1001B0008111E7CF70B1409108015091090130E001
:1001C00020E06FEF70FD11C0F901E050FF4F80811A
:1001D00090E0FA01E20FF31FE08102C0880F991F3F
:1001E000EA95E2F780959095682376952F5F3F4FCB
:1001F0002830310539F768B989B186958695869595
:10020000816F8BB9BECF8FEF9FEF0E949902B82EFE
:1002100080E09FEF0E94AA02C92F80E0D82FC03251
:10022000D10509F43EC0C034D10529F1609709F029
:10023000A8CFBB2009F4A5CF8B2D0E945D008111B2
:100240008150F8E08F9FC00111248C5D9E4F9093E8
:10025000090180930801E4E1F1E090E080E011926F
:10026000DC01A050BF4F1C93019688309105B9F76F
:10027000D092680186CFBB2009F483CF8B2D0E94DA
:100280005D008111815090E0FC01EC5EFE4F208109
:100290002127208380509F4FFC0110830093680129
:1002A00070CFBB2009F46DCF8B2D0E945D008111B2
:1002B000815028E0829FC00111248C5D9E4F909355
:1002C0000901809308012AE031E0ACE1B1E064E18A
:1002D00071E090E080E0F90141919F014D93FB01B5
:1002E0001192BF01AC0140505F4FFA01108301969B
:1002F0008830910581F7F092680100931201CC24B7
:10030000CA943FCF80E09FEF0E94AA025C01892B34
:1003100009F037CF8FEF9FEF0E9499029C01811562
:10032000F0E29F07D1F4F894ACE1B1E08D91E09157
:100330000801F0910901EA0DFB1D80832FEFA21A3D
:10034000B20A78E0A716B10489F70E9446037894B0
:10035000F09268011093120114CF8827892B09F0BD
:1003600010CF2115310509F40CCF822F0E945D00BA
:10037000C7FC0BC081118150EC2DCC0CFF0BE45E4F
:10038000FE4F808300936801BACF81118150C82E3F
:1003900010936801F6CE1F921FB61F9211242F935F
:1003A0003F934F935F936F937F938F939F93AF93FD
:1003B000BF93EF93FF9389B140B120916F013091CA
:1003C0007001582F422753276091690170916A018B
:1003D000FB01E423F523E095F095F0936A01E093A7
:1003E000690180916B0190916C01842395238E2784
:1003F0009F2790936C0180936B01609570956423A7
:10040000752386239723282739273093700120935B
:100410006F018223932340916D0150916E01842BD3
:10042000952B90936E0180936D01222730772115D3
:10043000310509F05FC080916601909167018639AE
:10044000910599F425E02093680120911301211171
:1004500009C021E0209312010196909367018093D7
:10046000660106C010921201F7CF8F3F9105A0F3ED
:1004700080916801882379F0809165018F5F809376
:1004800065018E31E0F12898809168018150809358
:10049000680110926501809164018F5F8A3098F144
:1004A00010926401A4E1B1E090E080E0FC01E05032
:1004B000FF4F20813D9123272083019688309105AD
:1004C000A9F7809171019091720101969093720148
:1004D00080937101FF91EF91BF91AF919F918F91A7
:1004E0007F916F915F914F913F912F911F901FBE10
:1004F0001F9018951092670110926601B9CF8F3046
:1005000050F2289AC8CF80936401DBCFF894109200
:10051000700110926F0110926E0110926D01109295
:100520006C0110926B0110926A011092690178942B
:1005300008959C01F89440916D0150916E01CA019B
:10054000822393234827592750936E0140936D01CE
:100550007894089520916F01309170012095309525
:100560008223932308958CE080938100109285006C
:10057000109284008FEC92E0909389008093880021
:10058000EFE6F0E08081826080830895CF92DF9271
:10059000FF920F931F93CF93DF93F62EFA011082F1
:1005A000A62FB72F30E020E090E067E070E04A2F00
:1005B0004F19042E000C550B4817590744F0DF91D2
:1005C000CF911F910F91FF90DF90CF900895CD9123
:1005D000C77003E010E0D0E02830310520F0118230
:1005E000319630E020E0AE01002E02C055954795CF
:1005F0000A94E2F7417055276B01C21AD30A01C071
:10060000440FCA94EAF75081452B40832F5F3F4F38
:100610000150110908F7CBCF0F931F93CF93DF93AE
:10062000DB01FA0150E0682F70E0C7E0D0E08E2FC8
:10063000841B082E000C990B861797072CF0DF916E
:10064000CF911F910F910895108203E010E02C913B
:1006500030E0CE01851B910902C0359527958A951A
:10066000E2F721703327002E01C0220F0A94EAF727
:100670009081922B90835F5F583010F0119650E07C
:100680000150110920F797709193D1CFCF92DF924B
:10069000EF92FF920F931F93CF93DF93CDB7DEB707
:1006A000A1970FB6F894DEBF0FBECDBF90E080E0FB
:1006B0000E94050410E000E08F3F79F5198284E282
:1006C000E82E81E0F82E6E0192E0C90ED11CA60141
:1006D000B70188E00E94C60288E0E80EF11C94E0B1
:1006E000C90ED11C84E6E81681E0F80681F741E2E4
:1006F00050E0B801CE0101960E940D04A1960FB6FC
:10070000F894DEBF0FBECDBFDF91CF911F910F9147
:10071000FF90EF90DF90CF9008950F5D1F4FC801BD
:100720000E9405040F3F93E0190731F610E000E046
:100730006FEFC8010E941D040F5D1F4F003284E05F
:100740001807B1F710E000E0B9CFEF92FF920F93D6
:100750001F93CF93DF93CDB7DEB7A1970FB6F89471
:10076000DEBF0FBECDBF90E080E00E94050410E028
:1007700000E0882371F101151105A1F541E250E077
:10078000B801CE0101960E94F5038981811114C040
:100790007E0182E0E80EF11C04E211E0A801B7013D
:1007A00088E00E940C0394E0E90EF11C085F1F4FE3
:1007B00081E00436180791F7A1960FB6F894DEBFD2
:1007C0000FBECDBFDF91CF911F910F91FF90EF90A2
:1007D00008950F5D1F4FC8010E9405040F3F93E06D
:1007E000190739F601521109C9CFDC01CB01FC010F
:1007F000F999FECF06C0F2BDE1BDF89A319600B47A
:100800000D9241505040B8F70895F999FECF92BD2E
:1008100081BDF89A992780B50895DC01A40FB51F12
:100820004150504048F0CB01840F951F2E910E94FB
:100830001E0441505040D0F70895262FF999FECF5D
:1008400092BD81BDF89A019700B4021639F01FBA23
:1008500020BD0FB6F894FA9AF99A0FBE0895F8944D
:02086000FFCFC8
:10086200010101010101010124010001020304054A
:02087200060777
:00000001FF
