
turbo_mapper.elf:     file format elf32-avr


Disassembly of section .data:

00800100 <turbo_pin_state>:
  800100:	01 01       	movw	r0, r2
  800102:	01 01       	movw	r0, r2
  800104:	01 01       	movw	r0, r2
  800106:	01 01       	movw	r0, r2

00800108 <output_pin_table>:
  800108:	24 01       	movw	r4, r8

0080010a <default_pin_values>:
  80010a:	00 01       	movw	r0, r0
  80010c:	02 03       	mulsu	r16, r18
  80010e:	04 05       	cpc	r16, r4
  800110:	06 07       	cpc	r16, r22

Disassembly of section .text:

00000000 <__vectors>:
   0:	0c 94 3e 00 	jmp	0x7c	; 0x7c <__ctors_end>
   4:	0c 94 5b 00 	jmp	0xb6	; 0xb6 <__bad_interrupt>
   8:	0c 94 5b 00 	jmp	0xb6	; 0xb6 <__bad_interrupt>
   c:	0c 94 5b 00 	jmp	0xb6	; 0xb6 <__bad_interrupt>
  10:	0c 94 5b 00 	jmp	0xb6	; 0xb6 <__bad_interrupt>
  14:	0c 94 5b 00 	jmp	0xb6	; 0xb6 <__bad_interrupt>
  18:	0c 94 5b 00 	jmp	0xb6	; 0xb6 <__bad_interrupt>
  1c:	0c 94 5b 00 	jmp	0xb6	; 0xb6 <__bad_interrupt>
  20:	0c 94 5b 00 	jmp	0xb6	; 0xb6 <__bad_interrupt>
  24:	0c 94 5b 00 	jmp	0xb6	; 0xb6 <__bad_interrupt>
  28:	0c 94 5b 00 	jmp	0xb6	; 0xb6 <__bad_interrupt>
  2c:	0c 94 5b 00 	jmp	0xb6	; 0xb6 <__bad_interrupt>
  30:	0c 94 5b 00 	jmp	0xb6	; 0xb6 <__bad_interrupt>
  34:	0c 94 cb 01 	jmp	0x396	; 0x396 <__vector_13>
  38:	0c 94 5b 00 	jmp	0xb6	; 0xb6 <__bad_interrupt>
  3c:	0c 94 5b 00 	jmp	0xb6	; 0xb6 <__bad_interrupt>
  40:	0c 94 5b 00 	jmp	0xb6	; 0xb6 <__bad_interrupt>
  44:	0c 94 5b 00 	jmp	0xb6	; 0xb6 <__bad_interrupt>
  48:	0c 94 5b 00 	jmp	0xb6	; 0xb6 <__bad_interrupt>
  4c:	0c 94 5b 00 	jmp	0xb6	; 0xb6 <__bad_interrupt>
  50:	0c 94 5b 00 	jmp	0xb6	; 0xb6 <__bad_interrupt>
  54:	0c 94 5b 00 	jmp	0xb6	; 0xb6 <__bad_interrupt>
  58:	0c 94 5b 00 	jmp	0xb6	; 0xb6 <__bad_interrupt>
  5c:	0c 94 5b 00 	jmp	0xb6	; 0xb6 <__bad_interrupt>
  60:	0c 94 5b 00 	jmp	0xb6	; 0xb6 <__bad_interrupt>
  64:	0c 94 5b 00 	jmp	0xb6	; 0xb6 <__bad_interrupt>
  68:	0c 94 5b 00 	jmp	0xb6	; 0xb6 <__bad_interrupt>
  6c:	0c 94 5b 00 	jmp	0xb6	; 0xb6 <__bad_interrupt>
  70:	0c 94 5b 00 	jmp	0xb6	; 0xb6 <__bad_interrupt>
  74:	0c 94 5b 00 	jmp	0xb6	; 0xb6 <__bad_interrupt>
  78:	0c 94 5b 00 	jmp	0xb6	; 0xb6 <__bad_interrupt>

0000007c <__ctors_end>:
  7c:	11 24       	eor	r1, r1
  7e:	1f be       	out	0x3f, r1	; 63
  80:	cf ef       	ldi	r28, 0xFF	; 255
  82:	d8 e0       	ldi	r29, 0x08	; 8
  84:	de bf       	out	0x3e, r29	; 62
  86:	cd bf       	out	0x3d, r28	; 61

00000088 <__do_copy_data>:
  88:	11 e0       	ldi	r17, 0x01	; 1
  8a:	a0 e0       	ldi	r26, 0x00	; 0
  8c:	b1 e0       	ldi	r27, 0x01	; 1
  8e:	e2 e6       	ldi	r30, 0x62	; 98
  90:	f8 e0       	ldi	r31, 0x08	; 8
  92:	02 c0       	rjmp	.+4      	; 0x98 <__do_copy_data+0x10>
  94:	05 90       	lpm	r0, Z+
  96:	0d 92       	st	X+, r0
  98:	a2 31       	cpi	r26, 0x12	; 18
  9a:	b1 07       	cpc	r27, r17
  9c:	d9 f7       	brne	.-10     	; 0x94 <__do_copy_data+0xc>

0000009e <__do_clear_bss>:
  9e:	21 e0       	ldi	r18, 0x01	; 1
  a0:	a2 e1       	ldi	r26, 0x12	; 18
  a2:	b1 e0       	ldi	r27, 0x01	; 1
  a4:	01 c0       	rjmp	.+2      	; 0xa8 <.do_clear_bss_start>

000000a6 <.do_clear_bss_loop>:
  a6:	1d 92       	st	X+, r1

000000a8 <.do_clear_bss_start>:
  a8:	a3 37       	cpi	r26, 0x73	; 115
  aa:	b2 07       	cpc	r27, r18
  ac:	e1 f7       	brne	.-8      	; 0xa6 <.do_clear_bss_loop>
  ae:	0e 94 9a 00 	call	0x134	; 0x134 <main>
  b2:	0c 94 2f 04 	jmp	0x85e	; 0x85e <_exit>

000000b6 <__bad_interrupt>:
  b6:	0c 94 00 00 	jmp	0	; 0x0 <__vectors>

000000ba <bitpos_to_uint>:
  ba:	98 2f       	mov	r25, r24
  bc:	91 95       	neg	r25
  be:	89 23       	and	r24, r25
  c0:	80 31       	cpi	r24, 0x10	; 16
  c2:	e9 f0       	breq	.+58     	; 0xfe <bitpos_to_uint+0x44>
  c4:	a0 f4       	brcc	.+40     	; 0xee <bitpos_to_uint+0x34>
  c6:	84 30       	cpi	r24, 0x04	; 4
  c8:	e1 f0       	breq	.+56     	; 0x102 <bitpos_to_uint+0x48>
  ca:	48 f4       	brcc	.+18     	; 0xde <bitpos_to_uint+0x24>
  cc:	81 30       	cpi	r24, 0x01	; 1
  ce:	01 f1       	breq	.+64     	; 0x110 <bitpos_to_uint+0x56>
  d0:	91 e0       	ldi	r25, 0x01	; 1
  d2:	82 30       	cpi	r24, 0x02	; 2
  d4:	09 f0       	breq	.+2      	; 0xd8 <bitpos_to_uint+0x1e>
  d6:	90 e0       	ldi	r25, 0x00	; 0
  d8:	89 2f       	mov	r24, r25
  da:	88 0f       	add	r24, r24
  dc:	08 95       	ret
  de:	91 e0       	ldi	r25, 0x01	; 1
  e0:	88 30       	cpi	r24, 0x08	; 8
  e2:	09 f0       	breq	.+2      	; 0xe6 <bitpos_to_uint+0x2c>
  e4:	90 e0       	ldi	r25, 0x00	; 0
  e6:	89 2f       	mov	r24, r25
  e8:	88 0f       	add	r24, r24
  ea:	88 0f       	add	r24, r24
  ec:	08 95       	ret
  ee:	80 34       	cpi	r24, 0x40	; 64
  f0:	51 f0       	breq	.+20     	; 0x106 <bitpos_to_uint+0x4c>
  f2:	80 38       	cpi	r24, 0x80	; 128
  f4:	51 f0       	breq	.+20     	; 0x10a <bitpos_to_uint+0x50>
  f6:	80 32       	cpi	r24, 0x20	; 32
  f8:	51 f4       	brne	.+20     	; 0x10e <bitpos_to_uint+0x54>
  fa:	86 e0       	ldi	r24, 0x06	; 6
  fc:	08 95       	ret
  fe:	85 e0       	ldi	r24, 0x05	; 5
 100:	08 95       	ret
 102:	83 e0       	ldi	r24, 0x03	; 3
 104:	08 95       	ret
 106:	87 e0       	ldi	r24, 0x07	; 7
 108:	08 95       	ret
 10a:	88 e0       	ldi	r24, 0x08	; 8
 10c:	08 95       	ret
 10e:	80 e0       	ldi	r24, 0x00	; 0
 110:	08 95       	ret

00000112 <init_pins>:
 112:	11 b8       	out	0x01, r1	; 1
 114:	8f ef       	ldi	r24, 0xFF	; 255
 116:	82 b9       	out	0x02, r24	; 2
 118:	87 b9       	out	0x07, r24	; 7
 11a:	88 b9       	out	0x08, r24	; 8
 11c:	20 9a       	sbi	0x04, 0	; 4
 11e:	28 98       	cbi	0x05, 0	; 5
 120:	8a b1       	in	r24, 0x0a	; 10
 122:	8e 60       	ori	r24, 0x0E	; 14
 124:	8a b9       	out	0x0a, r24	; 10
 126:	8a b1       	in	r24, 0x0a	; 10
 128:	8f 78       	andi	r24, 0x8F	; 143
 12a:	8a b9       	out	0x0a, r24	; 10
 12c:	8b b1       	in	r24, 0x0b	; 11
 12e:	8e 67       	ori	r24, 0x7E	; 126
 130:	8b b9       	out	0x0b, r24	; 11
 132:	08 95       	ret

00000134 <main>:
 134:	0e 94 89 00 	call	0x112	; 0x112 <init_pins>
 138:	0e 94 b3 02 	call	0x566	; 0x566 <timer1_init>
 13c:	e4 e2       	ldi	r30, 0x24	; 36
 13e:	f1 e0       	ldi	r31, 0x01	; 1
 140:	61 e0       	ldi	r22, 0x01	; 1
 142:	52 e0       	ldi	r21, 0x02	; 2
 144:	43 e0       	ldi	r20, 0x03	; 3
 146:	34 e0       	ldi	r19, 0x04	; 4
 148:	25 e0       	ldi	r18, 0x05	; 5
 14a:	96 e0       	ldi	r25, 0x06	; 6
 14c:	87 e0       	ldi	r24, 0x07	; 7
 14e:	10 82       	st	Z, r1
 150:	61 83       	std	Z+1, r22	; 0x01
 152:	52 83       	std	Z+2, r21	; 0x02
 154:	43 83       	std	Z+3, r20	; 0x03
 156:	34 83       	std	Z+4, r19	; 0x04
 158:	25 83       	std	Z+5, r18	; 0x05
 15a:	96 83       	std	Z+6, r25	; 0x06
 15c:	87 83       	std	Z+7, r24	; 0x07
 15e:	38 96       	adiw	r30, 0x08	; 8
 160:	71 e0       	ldi	r23, 0x01	; 1
 162:	e4 36       	cpi	r30, 0x64	; 100
 164:	f7 07       	cpc	r31, r23
 166:	99 f7       	brne	.-26     	; 0x14e <main+0x1a>
 168:	0e 94 a5 03 	call	0x74a	; 0x74a <load_eeprom_profiles>
 16c:	78 94       	sei
 16e:	cc 24       	eor	r12, r12
 170:	ca 94       	dec	r12
 172:	ee 24       	eor	r14, r14
 174:	ea 94       	dec	r14
 176:	11 e0       	ldi	r17, 0x01	; 1
 178:	84 e0       	ldi	r24, 0x04	; 4
 17a:	f8 2e       	mov	r15, r24
 17c:	02 e0       	ldi	r16, 0x02	; 2
 17e:	93 e0       	ldi	r25, 0x03	; 3
 180:	d9 2e       	mov	r13, r25
 182:	80 91 12 01 	lds	r24, 0x0112	; 0x800112 <next_state>
 186:	90 91 13 01 	lds	r25, 0x0113	; 0x800113 <cur_state>
 18a:	98 17       	cp	r25, r24
 18c:	51 f0       	breq	.+20     	; 0x1a2 <main+0x6e>
 18e:	0e 94 86 02 	call	0x50c	; 0x50c <clear_key_state>
 192:	80 91 12 01 	lds	r24, 0x0112	; 0x800112 <next_state>
 196:	80 93 13 01 	sts	0x0113, r24	; 0x800113 <cur_state>
 19a:	e8 b8       	out	0x08, r14	; 8
 19c:	8b b1       	in	r24, 0x0b	; 11
 19e:	8e 60       	ori	r24, 0x0E	; 14
 1a0:	8b b9       	out	0x0b, r24	; 11
 1a2:	80 91 13 01 	lds	r24, 0x0113	; 0x800113 <cur_state>
 1a6:	81 30       	cpi	r24, 0x01	; 1
 1a8:	71 f1       	breq	.+92     	; 0x206 <main+0xd2>
 1aa:	82 30       	cpi	r24, 0x02	; 2
 1ac:	09 f4       	brne	.+2      	; 0x1b0 <main+0x7c>
 1ae:	aa c0       	rjmp	.+340    	; 0x304 <main+0x1d0>
 1b0:	81 11       	cpse	r24, r1
 1b2:	e7 cf       	rjmp	.-50     	; 0x182 <main+0x4e>
 1b4:	70 b1       	in	r23, 0x00	; 0
 1b6:	40 91 08 01 	lds	r20, 0x0108	; 0x800108 <output_pin_table>
 1ba:	50 91 09 01 	lds	r21, 0x0109	; 0x800109 <output_pin_table+0x1>
 1be:	30 e0       	ldi	r19, 0x00	; 0
 1c0:	20 e0       	ldi	r18, 0x00	; 0
 1c2:	6f ef       	ldi	r22, 0xFF	; 255
 1c4:	70 fd       	sbrc	r23, 0
 1c6:	11 c0       	rjmp	.+34     	; 0x1ea <main+0xb6>
 1c8:	f9 01       	movw	r30, r18
 1ca:	e0 50       	subi	r30, 0x00	; 0
 1cc:	ff 4f       	sbci	r31, 0xFF	; 255
 1ce:	80 81       	ld	r24, Z
 1d0:	90 e0       	ldi	r25, 0x00	; 0
 1d2:	fa 01       	movw	r30, r20
 1d4:	e2 0f       	add	r30, r18
 1d6:	f3 1f       	adc	r31, r19
 1d8:	e0 81       	ld	r30, Z
 1da:	02 c0       	rjmp	.+4      	; 0x1e0 <main+0xac>
 1dc:	88 0f       	add	r24, r24
 1de:	99 1f       	adc	r25, r25
 1e0:	ea 95       	dec	r30
 1e2:	e2 f7       	brpl	.-8      	; 0x1dc <main+0xa8>
 1e4:	80 95       	com	r24
 1e6:	90 95       	com	r25
 1e8:	68 23       	and	r22, r24
 1ea:	76 95       	lsr	r23
 1ec:	2f 5f       	subi	r18, 0xFF	; 255
 1ee:	3f 4f       	sbci	r19, 0xFF	; 255
 1f0:	28 30       	cpi	r18, 0x08	; 8
 1f2:	31 05       	cpc	r19, r1
 1f4:	39 f7       	brne	.-50     	; 0x1c4 <main+0x90>
 1f6:	68 b9       	out	0x08, r22	; 8
 1f8:	89 b1       	in	r24, 0x09	; 9
 1fa:	86 95       	lsr	r24
 1fc:	86 95       	lsr	r24
 1fe:	86 95       	lsr	r24
 200:	81 6f       	ori	r24, 0xF1	; 241
 202:	8b b9       	out	0x0b, r24	; 11
 204:	be cf       	rjmp	.-132    	; 0x182 <main+0x4e>
 206:	8f ef       	ldi	r24, 0xFF	; 255
 208:	9f ef       	ldi	r25, 0xFF	; 255
 20a:	0e 94 99 02 	call	0x532	; 0x532 <get_key_press>
 20e:	b8 2e       	mov	r11, r24
 210:	80 e0       	ldi	r24, 0x00	; 0
 212:	9f ef       	ldi	r25, 0xFF	; 255
 214:	0e 94 aa 02 	call	0x554	; 0x554 <is_key_held>
 218:	c9 2f       	mov	r28, r25
 21a:	80 e0       	ldi	r24, 0x00	; 0
 21c:	d8 2f       	mov	r29, r24
 21e:	c0 32       	cpi	r28, 0x20	; 32
 220:	d1 05       	cpc	r29, r1
 222:	09 f4       	brne	.+2      	; 0x226 <main+0xf2>
 224:	3e c0       	rjmp	.+124    	; 0x2a2 <main+0x16e>
 226:	c0 34       	cpi	r28, 0x40	; 64
 228:	d1 05       	cpc	r29, r1
 22a:	29 f1       	breq	.+74     	; 0x276 <main+0x142>
 22c:	60 97       	sbiw	r28, 0x10	; 16
 22e:	09 f0       	breq	.+2      	; 0x232 <main+0xfe>
 230:	a8 cf       	rjmp	.-176    	; 0x182 <main+0x4e>
 232:	bb 20       	and	r11, r11
 234:	09 f4       	brne	.+2      	; 0x238 <main+0x104>
 236:	a5 cf       	rjmp	.-182    	; 0x182 <main+0x4e>
 238:	8b 2d       	mov	r24, r11
 23a:	0e 94 5d 00 	call	0xba	; 0xba <bitpos_to_uint>
 23e:	81 11       	cpse	r24, r1
 240:	81 50       	subi	r24, 0x01	; 1
 242:	f8 e0       	ldi	r31, 0x08	; 8
 244:	8f 9f       	mul	r24, r31
 246:	c0 01       	movw	r24, r0
 248:	11 24       	eor	r1, r1
 24a:	8c 5d       	subi	r24, 0xDC	; 220
 24c:	9e 4f       	sbci	r25, 0xFE	; 254
 24e:	90 93 09 01 	sts	0x0109, r25	; 0x800109 <output_pin_table+0x1>
 252:	80 93 08 01 	sts	0x0108, r24	; 0x800108 <output_pin_table>
 256:	e4 e1       	ldi	r30, 0x14	; 20
 258:	f1 e0       	ldi	r31, 0x01	; 1
 25a:	90 e0       	ldi	r25, 0x00	; 0
 25c:	80 e0       	ldi	r24, 0x00	; 0
 25e:	11 92       	st	Z+, r1
 260:	dc 01       	movw	r26, r24
 262:	a0 50       	subi	r26, 0x00	; 0
 264:	bf 4f       	sbci	r27, 0xFF	; 255
 266:	1c 93       	st	X, r17
 268:	01 96       	adiw	r24, 0x01	; 1
 26a:	88 30       	cpi	r24, 0x08	; 8
 26c:	91 05       	cpc	r25, r1
 26e:	b9 f7       	brne	.-18     	; 0x25e <main+0x12a>
 270:	d0 92 68 01 	sts	0x0168, r13	; 0x800168 <blinks>
 274:	86 cf       	rjmp	.-244    	; 0x182 <main+0x4e>
 276:	bb 20       	and	r11, r11
 278:	09 f4       	brne	.+2      	; 0x27c <main+0x148>
 27a:	83 cf       	rjmp	.-250    	; 0x182 <main+0x4e>
 27c:	8b 2d       	mov	r24, r11
 27e:	0e 94 5d 00 	call	0xba	; 0xba <bitpos_to_uint>
 282:	81 11       	cpse	r24, r1
 284:	81 50       	subi	r24, 0x01	; 1
 286:	90 e0       	ldi	r25, 0x00	; 0
 288:	fc 01       	movw	r30, r24
 28a:	ec 5e       	subi	r30, 0xEC	; 236
 28c:	fe 4f       	sbci	r31, 0xFE	; 254
 28e:	20 81       	ld	r18, Z
 290:	21 27       	eor	r18, r17
 292:	20 83       	st	Z, r18
 294:	80 50       	subi	r24, 0x00	; 0
 296:	9f 4f       	sbci	r25, 0xFF	; 255
 298:	fc 01       	movw	r30, r24
 29a:	10 83       	st	Z, r17
 29c:	00 93 68 01 	sts	0x0168, r16	; 0x800168 <blinks>
 2a0:	70 cf       	rjmp	.-288    	; 0x182 <main+0x4e>
 2a2:	bb 20       	and	r11, r11
 2a4:	09 f4       	brne	.+2      	; 0x2a8 <main+0x174>
 2a6:	6d cf       	rjmp	.-294    	; 0x182 <main+0x4e>
 2a8:	8b 2d       	mov	r24, r11
 2aa:	0e 94 5d 00 	call	0xba	; 0xba <bitpos_to_uint>
 2ae:	81 11       	cpse	r24, r1
 2b0:	81 50       	subi	r24, 0x01	; 1
 2b2:	28 e0       	ldi	r18, 0x08	; 8
 2b4:	82 9f       	mul	r24, r18
 2b6:	c0 01       	movw	r24, r0
 2b8:	11 24       	eor	r1, r1
 2ba:	8c 5d       	subi	r24, 0xDC	; 220
 2bc:	9e 4f       	sbci	r25, 0xFE	; 254
 2be:	90 93 09 01 	sts	0x0109, r25	; 0x800109 <output_pin_table+0x1>
 2c2:	80 93 08 01 	sts	0x0108, r24	; 0x800108 <output_pin_table>
 2c6:	2a e0       	ldi	r18, 0x0A	; 10
 2c8:	31 e0       	ldi	r19, 0x01	; 1
 2ca:	ac e1       	ldi	r26, 0x1C	; 28
 2cc:	b1 e0       	ldi	r27, 0x01	; 1
 2ce:	64 e1       	ldi	r22, 0x14	; 20
 2d0:	71 e0       	ldi	r23, 0x01	; 1
 2d2:	90 e0       	ldi	r25, 0x00	; 0
 2d4:	80 e0       	ldi	r24, 0x00	; 0
 2d6:	f9 01       	movw	r30, r18
 2d8:	41 91       	ld	r20, Z+
 2da:	9f 01       	movw	r18, r30
 2dc:	4d 93       	st	X+, r20
 2de:	fb 01       	movw	r30, r22
 2e0:	11 92       	st	Z+, r1
 2e2:	bf 01       	movw	r22, r30
 2e4:	ac 01       	movw	r20, r24
 2e6:	40 50       	subi	r20, 0x00	; 0
 2e8:	5f 4f       	sbci	r21, 0xFF	; 255
 2ea:	fa 01       	movw	r30, r20
 2ec:	10 83       	st	Z, r17
 2ee:	01 96       	adiw	r24, 0x01	; 1
 2f0:	88 30       	cpi	r24, 0x08	; 8
 2f2:	91 05       	cpc	r25, r1
 2f4:	81 f7       	brne	.-32     	; 0x2d6 <main+0x1a2>
 2f6:	f0 92 68 01 	sts	0x0168, r15	; 0x800168 <blinks>
 2fa:	00 93 12 01 	sts	0x0112, r16	; 0x800112 <next_state>
 2fe:	cc 24       	eor	r12, r12
 300:	ca 94       	dec	r12
 302:	3f cf       	rjmp	.-386    	; 0x182 <main+0x4e>
 304:	80 e0       	ldi	r24, 0x00	; 0
 306:	9f ef       	ldi	r25, 0xFF	; 255
 308:	0e 94 aa 02 	call	0x554	; 0x554 <is_key_held>
 30c:	5c 01       	movw	r10, r24
 30e:	89 2b       	or	r24, r25
 310:	09 f0       	breq	.+2      	; 0x314 <main+0x1e0>
 312:	37 cf       	rjmp	.-402    	; 0x182 <main+0x4e>
 314:	8f ef       	ldi	r24, 0xFF	; 255
 316:	9f ef       	ldi	r25, 0xFF	; 255
 318:	0e 94 99 02 	call	0x532	; 0x532 <get_key_press>
 31c:	9c 01       	movw	r18, r24
 31e:	81 15       	cp	r24, r1
 320:	f0 e2       	ldi	r31, 0x20	; 32
 322:	9f 07       	cpc	r25, r31
 324:	d1 f4       	brne	.+52     	; 0x35a <main+0x226>
 326:	f8 94       	cli
 328:	ac e1       	ldi	r26, 0x1C	; 28
 32a:	b1 e0       	ldi	r27, 0x01	; 1
 32c:	8d 91       	ld	r24, X+
 32e:	e0 91 08 01 	lds	r30, 0x0108	; 0x800108 <output_pin_table>
 332:	f0 91 09 01 	lds	r31, 0x0109	; 0x800109 <output_pin_table+0x1>
 336:	ea 0d       	add	r30, r10
 338:	fb 1d       	adc	r31, r11
 33a:	80 83       	st	Z, r24
 33c:	2f ef       	ldi	r18, 0xFF	; 255
 33e:	a2 1a       	sub	r10, r18
 340:	b2 0a       	sbc	r11, r18
 342:	78 e0       	ldi	r23, 0x08	; 8
 344:	a7 16       	cp	r10, r23
 346:	b1 04       	cpc	r11, r1
 348:	89 f7       	brne	.-30     	; 0x32c <main+0x1f8>
 34a:	0e 94 46 03 	call	0x68c	; 0x68c <save_eeprom_profiles>
 34e:	78 94       	sei
 350:	f0 92 68 01 	sts	0x0168, r15	; 0x800168 <blinks>
 354:	10 93 12 01 	sts	0x0112, r17	; 0x800112 <next_state>
 358:	14 cf       	rjmp	.-472    	; 0x182 <main+0x4e>
 35a:	88 27       	eor	r24, r24
 35c:	89 2b       	or	r24, r25
 35e:	09 f0       	breq	.+2      	; 0x362 <main+0x22e>
 360:	10 cf       	rjmp	.-480    	; 0x182 <main+0x4e>
 362:	21 15       	cp	r18, r1
 364:	31 05       	cpc	r19, r1
 366:	09 f4       	brne	.+2      	; 0x36a <main+0x236>
 368:	0c cf       	rjmp	.-488    	; 0x182 <main+0x4e>
 36a:	82 2f       	mov	r24, r18
 36c:	0e 94 5d 00 	call	0xba	; 0xba <bitpos_to_uint>
 370:	c7 fc       	sbrc	r12, 7
 372:	0b c0       	rjmp	.+22     	; 0x38a <main+0x256>
 374:	81 11       	cpse	r24, r1
 376:	81 50       	subi	r24, 0x01	; 1
 378:	ec 2d       	mov	r30, r12
 37a:	cc 0c       	add	r12, r12
 37c:	ff 0b       	sbc	r31, r31
 37e:	e4 5e       	subi	r30, 0xE4	; 228
 380:	fe 4f       	sbci	r31, 0xFE	; 254
 382:	80 83       	st	Z, r24
 384:	00 93 68 01 	sts	0x0168, r16	; 0x800168 <blinks>
 388:	ba cf       	rjmp	.-140    	; 0x2fe <main+0x1ca>
 38a:	81 11       	cpse	r24, r1
 38c:	81 50       	subi	r24, 0x01	; 1
 38e:	c8 2e       	mov	r12, r24
 390:	10 93 68 01 	sts	0x0168, r17	; 0x800168 <blinks>
 394:	f6 ce       	rjmp	.-532    	; 0x182 <main+0x4e>

00000396 <__vector_13>:
 396:	1f 92       	push	r1
 398:	1f b6       	in	r1, 0x3f	; 63
 39a:	1f 92       	push	r1
 39c:	11 24       	eor	r1, r1
 39e:	2f 93       	push	r18
 3a0:	3f 93       	push	r19
 3a2:	4f 93       	push	r20
 3a4:	5f 93       	push	r21
 3a6:	6f 93       	push	r22
 3a8:	7f 93       	push	r23
 3aa:	8f 93       	push	r24
 3ac:	9f 93       	push	r25
 3ae:	af 93       	push	r26
 3b0:	bf 93       	push	r27
 3b2:	ef 93       	push	r30
 3b4:	ff 93       	push	r31
 3b6:	89 b1       	in	r24, 0x09	; 9
 3b8:	40 b1       	in	r20, 0x00	; 0
 3ba:	20 91 6f 01 	lds	r18, 0x016F	; 0x80016f <key_state>
 3be:	30 91 70 01 	lds	r19, 0x0170	; 0x800170 <key_state+0x1>
 3c2:	58 2f       	mov	r21, r24
 3c4:	42 27       	eor	r20, r18
 3c6:	53 27       	eor	r21, r19
 3c8:	60 91 69 01 	lds	r22, 0x0169	; 0x800169 <ct0>
 3cc:	70 91 6a 01 	lds	r23, 0x016A	; 0x80016a <ct0+0x1>
 3d0:	fb 01       	movw	r30, r22
 3d2:	e4 23       	and	r30, r20
 3d4:	f5 23       	and	r31, r21
 3d6:	e0 95       	com	r30
 3d8:	f0 95       	com	r31
 3da:	f0 93 6a 01 	sts	0x016A, r31	; 0x80016a <ct0+0x1>
 3de:	e0 93 69 01 	sts	0x0169, r30	; 0x800169 <ct0>
 3e2:	80 91 6b 01 	lds	r24, 0x016B	; 0x80016b <ct1>
 3e6:	90 91 6c 01 	lds	r25, 0x016C	; 0x80016c <ct1+0x1>
 3ea:	84 23       	and	r24, r20
 3ec:	95 23       	and	r25, r21
 3ee:	8e 27       	eor	r24, r30
 3f0:	9f 27       	eor	r25, r31
 3f2:	90 93 6c 01 	sts	0x016C, r25	; 0x80016c <ct1+0x1>
 3f6:	80 93 6b 01 	sts	0x016B, r24	; 0x80016b <ct1>
 3fa:	60 95       	com	r22
 3fc:	70 95       	com	r23
 3fe:	64 23       	and	r22, r20
 400:	75 23       	and	r23, r21
 402:	86 23       	and	r24, r22
 404:	97 23       	and	r25, r23
 406:	28 27       	eor	r18, r24
 408:	39 27       	eor	r19, r25
 40a:	30 93 70 01 	sts	0x0170, r19	; 0x800170 <key_state+0x1>
 40e:	20 93 6f 01 	sts	0x016F, r18	; 0x80016f <key_state>
 412:	82 23       	and	r24, r18
 414:	93 23       	and	r25, r19
 416:	40 91 6d 01 	lds	r20, 0x016D	; 0x80016d <key_press>
 41a:	50 91 6e 01 	lds	r21, 0x016E	; 0x80016e <key_press+0x1>
 41e:	84 2b       	or	r24, r20
 420:	95 2b       	or	r25, r21
 422:	90 93 6e 01 	sts	0x016E, r25	; 0x80016e <key_press+0x1>
 426:	80 93 6d 01 	sts	0x016D, r24	; 0x80016d <key_press>
 42a:	22 27       	eor	r18, r18
 42c:	30 77       	andi	r19, 0x70	; 112
 42e:	21 15       	cp	r18, r1
 430:	31 05       	cpc	r19, r1
 432:	09 f0       	breq	.+2      	; 0x436 <__EEPROM_REGION_LENGTH__+0x36>
 434:	5f c0       	rjmp	.+190    	; 0x4f4 <__EEPROM_REGION_LENGTH__+0xf4>
 436:	80 91 66 01 	lds	r24, 0x0166	; 0x800166 <prog_held_counter.2>
 43a:	90 91 67 01 	lds	r25, 0x0167	; 0x800167 <prog_held_counter.2+0x1>
 43e:	86 39       	cpi	r24, 0x96	; 150
 440:	91 05       	cpc	r25, r1
 442:	99 f4       	brne	.+38     	; 0x46a <__EEPROM_REGION_LENGTH__+0x6a>
 444:	25 e0       	ldi	r18, 0x05	; 5
 446:	20 93 68 01 	sts	0x0168, r18	; 0x800168 <blinks>
 44a:	20 91 13 01 	lds	r18, 0x0113	; 0x800113 <cur_state>
 44e:	21 11       	cpse	r18, r1
 450:	09 c0       	rjmp	.+18     	; 0x464 <__EEPROM_REGION_LENGTH__+0x64>
 452:	21 e0       	ldi	r18, 0x01	; 1
 454:	20 93 12 01 	sts	0x0112, r18	; 0x800112 <next_state>
 458:	01 96       	adiw	r24, 0x01	; 1
 45a:	90 93 67 01 	sts	0x0167, r25	; 0x800167 <prog_held_counter.2+0x1>
 45e:	80 93 66 01 	sts	0x0166, r24	; 0x800166 <prog_held_counter.2>
 462:	06 c0       	rjmp	.+12     	; 0x470 <__EEPROM_REGION_LENGTH__+0x70>
 464:	10 92 12 01 	sts	0x0112, r1	; 0x800112 <next_state>
 468:	f7 cf       	rjmp	.-18     	; 0x458 <__EEPROM_REGION_LENGTH__+0x58>
 46a:	8f 3f       	cpi	r24, 0xFF	; 255
 46c:	91 05       	cpc	r25, r1
 46e:	a0 f3       	brcs	.-24     	; 0x458 <__EEPROM_REGION_LENGTH__+0x58>
 470:	80 91 68 01 	lds	r24, 0x0168	; 0x800168 <blinks>
 474:	88 23       	and	r24, r24
 476:	79 f0       	breq	.+30     	; 0x496 <__EEPROM_REGION_LENGTH__+0x96>
 478:	80 91 65 01 	lds	r24, 0x0165	; 0x800165 <blink_counter.1>
 47c:	8f 5f       	subi	r24, 0xFF	; 255
 47e:	80 93 65 01 	sts	0x0165, r24	; 0x800165 <blink_counter.1>
 482:	8e 31       	cpi	r24, 0x1E	; 30
 484:	e0 f1       	brcs	.+120    	; 0x4fe <__EEPROM_REGION_LENGTH__+0xfe>
 486:	28 98       	cbi	0x05, 0	; 5
 488:	80 91 68 01 	lds	r24, 0x0168	; 0x800168 <blinks>
 48c:	81 50       	subi	r24, 0x01	; 1
 48e:	80 93 68 01 	sts	0x0168, r24	; 0x800168 <blinks>
 492:	10 92 65 01 	sts	0x0165, r1	; 0x800165 <blink_counter.1>
 496:	80 91 64 01 	lds	r24, 0x0164	; 0x800164 <turbo_counter.0>
 49a:	8f 5f       	subi	r24, 0xFF	; 255
 49c:	8a 30       	cpi	r24, 0x0A	; 10
 49e:	98 f1       	brcs	.+102    	; 0x506 <__EEPROM_REGION_LENGTH__+0x106>
 4a0:	10 92 64 01 	sts	0x0164, r1	; 0x800164 <turbo_counter.0>
 4a4:	a4 e1       	ldi	r26, 0x14	; 20
 4a6:	b1 e0       	ldi	r27, 0x01	; 1
 4a8:	90 e0       	ldi	r25, 0x00	; 0
 4aa:	80 e0       	ldi	r24, 0x00	; 0
 4ac:	fc 01       	movw	r30, r24
 4ae:	e0 50       	subi	r30, 0x00	; 0
 4b0:	ff 4f       	sbci	r31, 0xFF	; 255
 4b2:	20 81       	ld	r18, Z
 4b4:	3d 91       	ld	r19, X+
 4b6:	23 27       	eor	r18, r19
 4b8:	20 83       	st	Z, r18
 4ba:	01 96       	adiw	r24, 0x01	; 1
 4bc:	88 30       	cpi	r24, 0x08	; 8
 4be:	91 05       	cpc	r25, r1
 4c0:	a9 f7       	brne	.-22     	; 0x4ac <__EEPROM_REGION_LENGTH__+0xac>
 4c2:	80 91 71 01 	lds	r24, 0x0171	; 0x800171 <internal_counter>
 4c6:	90 91 72 01 	lds	r25, 0x0172	; 0x800172 <internal_counter+0x1>
 4ca:	01 96       	adiw	r24, 0x01	; 1
 4cc:	90 93 72 01 	sts	0x0172, r25	; 0x800172 <internal_counter+0x1>
 4d0:	80 93 71 01 	sts	0x0171, r24	; 0x800171 <internal_counter>
 4d4:	ff 91       	pop	r31
 4d6:	ef 91       	pop	r30
 4d8:	bf 91       	pop	r27
 4da:	af 91       	pop	r26
 4dc:	9f 91       	pop	r25
 4de:	8f 91       	pop	r24
 4e0:	7f 91       	pop	r23
 4e2:	6f 91       	pop	r22
 4e4:	5f 91       	pop	r21
 4e6:	4f 91       	pop	r20
 4e8:	3f 91       	pop	r19
 4ea:	2f 91       	pop	r18
 4ec:	1f 90       	pop	r1
 4ee:	1f be       	out	0x3f, r1	; 63
 4f0:	1f 90       	pop	r1
 4f2:	18 95       	reti
 4f4:	10 92 67 01 	sts	0x0167, r1	; 0x800167 <prog_held_counter.2+0x1>
 4f8:	10 92 66 01 	sts	0x0166, r1	; 0x800166 <prog_held_counter.2>
 4fc:	b9 cf       	rjmp	.-142    	; 0x470 <__EEPROM_REGION_LENGTH__+0x70>
 4fe:	8f 30       	cpi	r24, 0x0F	; 15
 500:	50 f2       	brcs	.-108    	; 0x496 <__EEPROM_REGION_LENGTH__+0x96>
 502:	28 9a       	sbi	0x05, 0	; 5
 504:	c8 cf       	rjmp	.-112    	; 0x496 <__EEPROM_REGION_LENGTH__+0x96>
 506:	80 93 64 01 	sts	0x0164, r24	; 0x800164 <turbo_counter.0>
 50a:	db cf       	rjmp	.-74     	; 0x4c2 <__EEPROM_REGION_LENGTH__+0xc2>

0000050c <clear_key_state>:
 50c:	f8 94       	cli
 50e:	10 92 70 01 	sts	0x0170, r1	; 0x800170 <key_state+0x1>
 512:	10 92 6f 01 	sts	0x016F, r1	; 0x80016f <key_state>
 516:	10 92 6e 01 	sts	0x016E, r1	; 0x80016e <key_press+0x1>
 51a:	10 92 6d 01 	sts	0x016D, r1	; 0x80016d <key_press>
 51e:	10 92 6c 01 	sts	0x016C, r1	; 0x80016c <ct1+0x1>
 522:	10 92 6b 01 	sts	0x016B, r1	; 0x80016b <ct1>
 526:	10 92 6a 01 	sts	0x016A, r1	; 0x80016a <ct0+0x1>
 52a:	10 92 69 01 	sts	0x0169, r1	; 0x800169 <ct0>
 52e:	78 94       	sei
 530:	08 95       	ret

00000532 <get_key_press>:
 532:	9c 01       	movw	r18, r24
 534:	f8 94       	cli
 536:	40 91 6d 01 	lds	r20, 0x016D	; 0x80016d <key_press>
 53a:	50 91 6e 01 	lds	r21, 0x016E	; 0x80016e <key_press+0x1>
 53e:	ca 01       	movw	r24, r20
 540:	82 23       	and	r24, r18
 542:	93 23       	and	r25, r19
 544:	48 27       	eor	r20, r24
 546:	59 27       	eor	r21, r25
 548:	50 93 6e 01 	sts	0x016E, r21	; 0x80016e <key_press+0x1>
 54c:	40 93 6d 01 	sts	0x016D, r20	; 0x80016d <key_press>
 550:	78 94       	sei
 552:	08 95       	ret

00000554 <is_key_held>:
 554:	20 91 6f 01 	lds	r18, 0x016F	; 0x80016f <key_state>
 558:	30 91 70 01 	lds	r19, 0x0170	; 0x800170 <key_state+0x1>
 55c:	20 95       	com	r18
 55e:	30 95       	com	r19
 560:	82 23       	and	r24, r18
 562:	93 23       	and	r25, r19
 564:	08 95       	ret

00000566 <timer1_init>:
 566:	8c e0       	ldi	r24, 0x0C	; 12
 568:	80 93 81 00 	sts	0x0081, r24	; 0x800081 <__TEXT_REGION_LENGTH__+0x7f8081>
 56c:	10 92 85 00 	sts	0x0085, r1	; 0x800085 <__TEXT_REGION_LENGTH__+0x7f8085>
 570:	10 92 84 00 	sts	0x0084, r1	; 0x800084 <__TEXT_REGION_LENGTH__+0x7f8084>
 574:	8f ec       	ldi	r24, 0xCF	; 207
 576:	92 e0       	ldi	r25, 0x02	; 2
 578:	90 93 89 00 	sts	0x0089, r25	; 0x800089 <__TEXT_REGION_LENGTH__+0x7f8089>
 57c:	80 93 88 00 	sts	0x0088, r24	; 0x800088 <__TEXT_REGION_LENGTH__+0x7f8088>
 580:	ef e6       	ldi	r30, 0x6F	; 111
 582:	f0 e0       	ldi	r31, 0x00	; 0
 584:	80 81       	ld	r24, Z
 586:	82 60       	ori	r24, 0x02	; 2
 588:	80 83       	st	Z, r24
 58a:	08 95       	ret

0000058c <bit_pack>:
 58c:	cf 92       	push	r12
 58e:	df 92       	push	r13
 590:	ff 92       	push	r15
 592:	0f 93       	push	r16
 594:	1f 93       	push	r17
 596:	cf 93       	push	r28
 598:	df 93       	push	r29
 59a:	f6 2e       	mov	r15, r22
 59c:	fa 01       	movw	r30, r20
 59e:	10 82       	st	Z, r1
 5a0:	a6 2f       	mov	r26, r22
 5a2:	b7 2f       	mov	r27, r23
 5a4:	30 e0       	ldi	r19, 0x00	; 0
 5a6:	20 e0       	ldi	r18, 0x00	; 0
 5a8:	90 e0       	ldi	r25, 0x00	; 0
 5aa:	67 e0       	ldi	r22, 0x07	; 7
 5ac:	70 e0       	ldi	r23, 0x00	; 0
 5ae:	4a 2f       	mov	r20, r26
 5b0:	4f 19       	sub	r20, r15
 5b2:	04 2e       	mov	r0, r20
 5b4:	00 0c       	add	r0, r0
 5b6:	55 0b       	sbc	r21, r21
 5b8:	48 17       	cp	r20, r24
 5ba:	59 07       	cpc	r21, r25
 5bc:	44 f0       	brlt	.+16     	; 0x5ce <bit_pack+0x42>
 5be:	df 91       	pop	r29
 5c0:	cf 91       	pop	r28
 5c2:	1f 91       	pop	r17
 5c4:	0f 91       	pop	r16
 5c6:	ff 90       	pop	r15
 5c8:	df 90       	pop	r13
 5ca:	cf 90       	pop	r12
 5cc:	08 95       	ret
 5ce:	cd 91       	ld	r28, X+
 5d0:	c7 70       	andi	r28, 0x07	; 7
 5d2:	03 e0       	ldi	r16, 0x03	; 3
 5d4:	10 e0       	ldi	r17, 0x00	; 0
 5d6:	d0 e0       	ldi	r29, 0x00	; 0
 5d8:	28 30       	cpi	r18, 0x08	; 8
 5da:	31 05       	cpc	r19, r1
 5dc:	20 f0       	brcs	.+8      	; 0x5e6 <bit_pack+0x5a>
 5de:	11 82       	std	Z+1, r1	; 0x01
 5e0:	31 96       	adiw	r30, 0x01	; 1
 5e2:	30 e0       	ldi	r19, 0x00	; 0
 5e4:	20 e0       	ldi	r18, 0x00	; 0
 5e6:	ae 01       	movw	r20, r28
 5e8:	00 2e       	mov	r0, r16
 5ea:	02 c0       	rjmp	.+4      	; 0x5f0 <bit_pack+0x64>
 5ec:	55 95       	asr	r21
 5ee:	47 95       	ror	r20
 5f0:	0a 94       	dec	r0
 5f2:	e2 f7       	brpl	.-8      	; 0x5ec <bit_pack+0x60>
 5f4:	41 70       	andi	r20, 0x01	; 1
 5f6:	55 27       	eor	r21, r21
 5f8:	6b 01       	movw	r12, r22
 5fa:	c2 1a       	sub	r12, r18
 5fc:	d3 0a       	sbc	r13, r19
 5fe:	01 c0       	rjmp	.+2      	; 0x602 <bit_pack+0x76>
 600:	44 0f       	add	r20, r20
 602:	ca 94       	dec	r12
 604:	ea f7       	brpl	.-6      	; 0x600 <bit_pack+0x74>
 606:	50 81       	ld	r21, Z
 608:	45 2b       	or	r20, r21
 60a:	40 83       	st	Z, r20
 60c:	2f 5f       	subi	r18, 0xFF	; 255
 60e:	3f 4f       	sbci	r19, 0xFF	; 255
 610:	01 50       	subi	r16, 0x01	; 1
 612:	11 09       	sbc	r17, r1
 614:	08 f7       	brcc	.-62     	; 0x5d8 <bit_pack+0x4c>
 616:	cb cf       	rjmp	.-106    	; 0x5ae <bit_pack+0x22>

00000618 <unpack_bits>:
 618:	0f 93       	push	r16
 61a:	1f 93       	push	r17
 61c:	cf 93       	push	r28
 61e:	df 93       	push	r29
 620:	db 01       	movw	r26, r22
 622:	fa 01       	movw	r30, r20
 624:	50 e0       	ldi	r21, 0x00	; 0
 626:	68 2f       	mov	r22, r24
 628:	70 e0       	ldi	r23, 0x00	; 0
 62a:	c7 e0       	ldi	r28, 0x07	; 7
 62c:	d0 e0       	ldi	r29, 0x00	; 0
 62e:	8e 2f       	mov	r24, r30
 630:	84 1b       	sub	r24, r20
 632:	08 2e       	mov	r0, r24
 634:	00 0c       	add	r0, r0
 636:	99 0b       	sbc	r25, r25
 638:	86 17       	cp	r24, r22
 63a:	97 07       	cpc	r25, r23
 63c:	2c f0       	brlt	.+10     	; 0x648 <unpack_bits+0x30>
 63e:	df 91       	pop	r29
 640:	cf 91       	pop	r28
 642:	1f 91       	pop	r17
 644:	0f 91       	pop	r16
 646:	08 95       	ret
 648:	10 82       	st	Z, r1
 64a:	03 e0       	ldi	r16, 0x03	; 3
 64c:	10 e0       	ldi	r17, 0x00	; 0
 64e:	2c 91       	ld	r18, X
 650:	30 e0       	ldi	r19, 0x00	; 0
 652:	ce 01       	movw	r24, r28
 654:	85 1b       	sub	r24, r21
 656:	91 09       	sbc	r25, r1
 658:	02 c0       	rjmp	.+4      	; 0x65e <unpack_bits+0x46>
 65a:	35 95       	asr	r19
 65c:	27 95       	ror	r18
 65e:	8a 95       	dec	r24
 660:	e2 f7       	brpl	.-8      	; 0x65a <unpack_bits+0x42>
 662:	21 70       	andi	r18, 0x01	; 1
 664:	33 27       	eor	r19, r19
 666:	00 2e       	mov	r0, r16
 668:	01 c0       	rjmp	.+2      	; 0x66c <unpack_bits+0x54>
 66a:	22 0f       	add	r18, r18
 66c:	0a 94       	dec	r0
 66e:	ea f7       	brpl	.-6      	; 0x66a <unpack_bits+0x52>
 670:	90 81       	ld	r25, Z
 672:	92 2b       	or	r25, r18
 674:	90 83       	st	Z, r25
 676:	5f 5f       	subi	r21, 0xFF	; 255
 678:	58 30       	cpi	r21, 0x08	; 8
 67a:	10 f0       	brcs	.+4      	; 0x680 <unpack_bits+0x68>
 67c:	11 96       	adiw	r26, 0x01	; 1
 67e:	50 e0       	ldi	r21, 0x00	; 0
 680:	01 50       	subi	r16, 0x01	; 1
 682:	11 09       	sbc	r17, r1
 684:	20 f7       	brcc	.-56     	; 0x64e <unpack_bits+0x36>
 686:	97 70       	andi	r25, 0x07	; 7
 688:	91 93       	st	Z+, r25
 68a:	d1 cf       	rjmp	.-94     	; 0x62e <unpack_bits+0x16>

0000068c <save_eeprom_profiles>:
 68c:	cf 92       	push	r12
 68e:	df 92       	push	r13
 690:	ef 92       	push	r14
 692:	ff 92       	push	r15
 694:	0f 93       	push	r16
 696:	1f 93       	push	r17
 698:	cf 93       	push	r28
 69a:	df 93       	push	r29
 69c:	cd b7       	in	r28, 0x3d	; 61
 69e:	de b7       	in	r29, 0x3e	; 62
 6a0:	a1 97       	sbiw	r28, 0x21	; 33
 6a2:	0f b6       	in	r0, 0x3f	; 63
 6a4:	f8 94       	cli
 6a6:	de bf       	out	0x3e, r29	; 62
 6a8:	0f be       	out	0x3f, r0	; 63
 6aa:	cd bf       	out	0x3d, r28	; 61
 6ac:	90 e0       	ldi	r25, 0x00	; 0
 6ae:	80 e0       	ldi	r24, 0x00	; 0
 6b0:	0e 94 05 04 	call	0x80a	; 0x80a <eeprom_read_byte>
 6b4:	10 e0       	ldi	r17, 0x00	; 0
 6b6:	00 e0       	ldi	r16, 0x00	; 0
 6b8:	8f 3f       	cpi	r24, 0xFF	; 255
 6ba:	79 f5       	brne	.+94     	; 0x71a <save_eeprom_profiles+0x8e>
 6bc:	19 82       	std	Y+1, r1	; 0x01
 6be:	84 e2       	ldi	r24, 0x24	; 36
 6c0:	e8 2e       	mov	r14, r24
 6c2:	81 e0       	ldi	r24, 0x01	; 1
 6c4:	f8 2e       	mov	r15, r24
 6c6:	6e 01       	movw	r12, r28
 6c8:	92 e0       	ldi	r25, 0x02	; 2
 6ca:	c9 0e       	add	r12, r25
 6cc:	d1 1c       	adc	r13, r1
 6ce:	a6 01       	movw	r20, r12
 6d0:	b7 01       	movw	r22, r14
 6d2:	88 e0       	ldi	r24, 0x08	; 8
 6d4:	0e 94 c6 02 	call	0x58c	; 0x58c <bit_pack>
 6d8:	88 e0       	ldi	r24, 0x08	; 8
 6da:	e8 0e       	add	r14, r24
 6dc:	f1 1c       	adc	r15, r1
 6de:	94 e0       	ldi	r25, 0x04	; 4
 6e0:	c9 0e       	add	r12, r25
 6e2:	d1 1c       	adc	r13, r1
 6e4:	84 e6       	ldi	r24, 0x64	; 100
 6e6:	e8 16       	cp	r14, r24
 6e8:	81 e0       	ldi	r24, 0x01	; 1
 6ea:	f8 06       	cpc	r15, r24
 6ec:	81 f7       	brne	.-32     	; 0x6ce <save_eeprom_profiles+0x42>
 6ee:	41 e2       	ldi	r20, 0x21	; 33
 6f0:	50 e0       	ldi	r21, 0x00	; 0
 6f2:	b8 01       	movw	r22, r16
 6f4:	ce 01       	movw	r24, r28
 6f6:	01 96       	adiw	r24, 0x01	; 1
 6f8:	0e 94 0d 04 	call	0x81a	; 0x81a <eeprom_update_block>
 6fc:	a1 96       	adiw	r28, 0x21	; 33
 6fe:	0f b6       	in	r0, 0x3f	; 63
 700:	f8 94       	cli
 702:	de bf       	out	0x3e, r29	; 62
 704:	0f be       	out	0x3f, r0	; 63
 706:	cd bf       	out	0x3d, r28	; 61
 708:	df 91       	pop	r29
 70a:	cf 91       	pop	r28
 70c:	1f 91       	pop	r17
 70e:	0f 91       	pop	r16
 710:	ff 90       	pop	r15
 712:	ef 90       	pop	r14
 714:	df 90       	pop	r13
 716:	cf 90       	pop	r12
 718:	08 95       	ret
 71a:	0f 5d       	subi	r16, 0xDF	; 223
 71c:	1f 4f       	sbci	r17, 0xFF	; 255
 71e:	c8 01       	movw	r24, r16
 720:	0e 94 05 04 	call	0x80a	; 0x80a <eeprom_read_byte>
 724:	0f 3f       	cpi	r16, 0xFF	; 255
 726:	93 e0       	ldi	r25, 0x03	; 3
 728:	19 07       	cpc	r17, r25
 72a:	31 f6       	brne	.-116    	; 0x6b8 <save_eeprom_profiles+0x2c>
 72c:	10 e0       	ldi	r17, 0x00	; 0
 72e:	00 e0       	ldi	r16, 0x00	; 0
 730:	6f ef       	ldi	r22, 0xFF	; 255
 732:	c8 01       	movw	r24, r16
 734:	0e 94 1d 04 	call	0x83a	; 0x83a <eeprom_update_byte>
 738:	0f 5d       	subi	r16, 0xDF	; 223
 73a:	1f 4f       	sbci	r17, 0xFF	; 255
 73c:	00 32       	cpi	r16, 0x20	; 32
 73e:	84 e0       	ldi	r24, 0x04	; 4
 740:	18 07       	cpc	r17, r24
 742:	b1 f7       	brne	.-20     	; 0x730 <save_eeprom_profiles+0xa4>
 744:	10 e0       	ldi	r17, 0x00	; 0
 746:	00 e0       	ldi	r16, 0x00	; 0
 748:	b9 cf       	rjmp	.-142    	; 0x6bc <save_eeprom_profiles+0x30>

0000074a <load_eeprom_profiles>:
 74a:	ef 92       	push	r14
 74c:	ff 92       	push	r15
 74e:	0f 93       	push	r16
 750:	1f 93       	push	r17
 752:	cf 93       	push	r28
 754:	df 93       	push	r29
 756:	cd b7       	in	r28, 0x3d	; 61
 758:	de b7       	in	r29, 0x3e	; 62
 75a:	a1 97       	sbiw	r28, 0x21	; 33
 75c:	0f b6       	in	r0, 0x3f	; 63
 75e:	f8 94       	cli
 760:	de bf       	out	0x3e, r29	; 62
 762:	0f be       	out	0x3f, r0	; 63
 764:	cd bf       	out	0x3d, r28	; 61
 766:	90 e0       	ldi	r25, 0x00	; 0
 768:	80 e0       	ldi	r24, 0x00	; 0
 76a:	0e 94 05 04 	call	0x80a	; 0x80a <eeprom_read_byte>
 76e:	10 e0       	ldi	r17, 0x00	; 0
 770:	00 e0       	ldi	r16, 0x00	; 0
 772:	88 23       	and	r24, r24
 774:	71 f1       	breq	.+92     	; 0x7d2 <load_eeprom_profiles+0x88>
 776:	01 15       	cp	r16, r1
 778:	11 05       	cpc	r17, r1
 77a:	a1 f5       	brne	.+104    	; 0x7e4 <load_eeprom_profiles+0x9a>
 77c:	41 e2       	ldi	r20, 0x21	; 33
 77e:	50 e0       	ldi	r21, 0x00	; 0
 780:	b8 01       	movw	r22, r16
 782:	ce 01       	movw	r24, r28
 784:	01 96       	adiw	r24, 0x01	; 1
 786:	0e 94 f5 03 	call	0x7ea	; 0x7ea <eeprom_read_block>
 78a:	89 81       	ldd	r24, Y+1	; 0x01
 78c:	81 11       	cpse	r24, r1
 78e:	14 c0       	rjmp	.+40     	; 0x7b8 <load_eeprom_profiles+0x6e>
 790:	7e 01       	movw	r14, r28
 792:	82 e0       	ldi	r24, 0x02	; 2
 794:	e8 0e       	add	r14, r24
 796:	f1 1c       	adc	r15, r1
 798:	04 e2       	ldi	r16, 0x24	; 36
 79a:	11 e0       	ldi	r17, 0x01	; 1
 79c:	a8 01       	movw	r20, r16
 79e:	b7 01       	movw	r22, r14
 7a0:	88 e0       	ldi	r24, 0x08	; 8
 7a2:	0e 94 0c 03 	call	0x618	; 0x618 <unpack_bits>
 7a6:	94 e0       	ldi	r25, 0x04	; 4
 7a8:	e9 0e       	add	r14, r25
 7aa:	f1 1c       	adc	r15, r1
 7ac:	08 5f       	subi	r16, 0xF8	; 248
 7ae:	1f 4f       	sbci	r17, 0xFF	; 255
 7b0:	81 e0       	ldi	r24, 0x01	; 1
 7b2:	04 36       	cpi	r16, 0x64	; 100
 7b4:	18 07       	cpc	r17, r24
 7b6:	91 f7       	brne	.-28     	; 0x79c <load_eeprom_profiles+0x52>
 7b8:	a1 96       	adiw	r28, 0x21	; 33
 7ba:	0f b6       	in	r0, 0x3f	; 63
 7bc:	f8 94       	cli
 7be:	de bf       	out	0x3e, r29	; 62
 7c0:	0f be       	out	0x3f, r0	; 63
 7c2:	cd bf       	out	0x3d, r28	; 61
 7c4:	df 91       	pop	r29
 7c6:	cf 91       	pop	r28
 7c8:	1f 91       	pop	r17
 7ca:	0f 91       	pop	r16
 7cc:	ff 90       	pop	r15
 7ce:	ef 90       	pop	r14
 7d0:	08 95       	ret
 7d2:	0f 5d       	subi	r16, 0xDF	; 223
 7d4:	1f 4f       	sbci	r17, 0xFF	; 255
 7d6:	c8 01       	movw	r24, r16
 7d8:	0e 94 05 04 	call	0x80a	; 0x80a <eeprom_read_byte>
 7dc:	0f 3f       	cpi	r16, 0xFF	; 255
 7de:	93 e0       	ldi	r25, 0x03	; 3
 7e0:	19 07       	cpc	r17, r25
 7e2:	39 f6       	brne	.-114    	; 0x772 <load_eeprom_profiles+0x28>
 7e4:	01 52       	subi	r16, 0x21	; 33
 7e6:	11 09       	sbc	r17, r1
 7e8:	c9 cf       	rjmp	.-110    	; 0x77c <load_eeprom_profiles+0x32>

000007ea <eeprom_read_block>:
 7ea:	dc 01       	movw	r26, r24
 7ec:	cb 01       	movw	r24, r22

000007ee <eeprom_read_blraw>:
 7ee:	fc 01       	movw	r30, r24
 7f0:	f9 99       	sbic	0x1f, 1	; 31
 7f2:	fe cf       	rjmp	.-4      	; 0x7f0 <eeprom_read_blraw+0x2>
 7f4:	06 c0       	rjmp	.+12     	; 0x802 <__DATA_REGION_LENGTH__+0x2>
 7f6:	f2 bd       	out	0x22, r31	; 34
 7f8:	e1 bd       	out	0x21, r30	; 33
 7fa:	f8 9a       	sbi	0x1f, 0	; 31
 7fc:	31 96       	adiw	r30, 0x01	; 1
 7fe:	00 b4       	in	r0, 0x20	; 32
 800:	0d 92       	st	X+, r0
 802:	41 50       	subi	r20, 0x01	; 1
 804:	50 40       	sbci	r21, 0x00	; 0
 806:	b8 f7       	brcc	.-18     	; 0x7f6 <eeprom_read_blraw+0x8>
 808:	08 95       	ret

0000080a <eeprom_read_byte>:
 80a:	f9 99       	sbic	0x1f, 1	; 31
 80c:	fe cf       	rjmp	.-4      	; 0x80a <eeprom_read_byte>
 80e:	92 bd       	out	0x22, r25	; 34
 810:	81 bd       	out	0x21, r24	; 33
 812:	f8 9a       	sbi	0x1f, 0	; 31
 814:	99 27       	eor	r25, r25
 816:	80 b5       	in	r24, 0x20	; 32
 818:	08 95       	ret

0000081a <eeprom_update_block>:
 81a:	dc 01       	movw	r26, r24
 81c:	a4 0f       	add	r26, r20
 81e:	b5 1f       	adc	r27, r21
 820:	41 50       	subi	r20, 0x01	; 1
 822:	50 40       	sbci	r21, 0x00	; 0
 824:	48 f0       	brcs	.+18     	; 0x838 <eeprom_update_block+0x1e>
 826:	cb 01       	movw	r24, r22
 828:	84 0f       	add	r24, r20
 82a:	95 1f       	adc	r25, r21
 82c:	2e 91       	ld	r18, -X
 82e:	0e 94 1e 04 	call	0x83c	; 0x83c <eeprom_update_r18>
 832:	41 50       	subi	r20, 0x01	; 1
 834:	50 40       	sbci	r21, 0x00	; 0
 836:	d0 f7       	brcc	.-12     	; 0x82c <eeprom_update_block+0x12>
 838:	08 95       	ret

0000083a <eeprom_update_byte>:
 83a:	26 2f       	mov	r18, r22

0000083c <eeprom_update_r18>:
 83c:	f9 99       	sbic	0x1f, 1	; 31
 83e:	fe cf       	rjmp	.-4      	; 0x83c <eeprom_update_r18>
 840:	92 bd       	out	0x22, r25	; 34
 842:	81 bd       	out	0x21, r24	; 33
 844:	f8 9a       	sbi	0x1f, 0	; 31
 846:	01 97       	sbiw	r24, 0x01	; 1
 848:	00 b4       	in	r0, 0x20	; 32
 84a:	02 16       	cp	r0, r18
 84c:	39 f0       	breq	.+14     	; 0x85c <eeprom_update_r18+0x20>
 84e:	1f ba       	out	0x1f, r1	; 31
 850:	20 bd       	out	0x20, r18	; 32
 852:	0f b6       	in	r0, 0x3f	; 63
 854:	f8 94       	cli
 856:	fa 9a       	sbi	0x1f, 2	; 31
 858:	f9 9a       	sbi	0x1f, 1	; 31
 85a:	0f be       	out	0x3f, r0	; 63
 85c:	08 95       	ret

0000085e <_exit>:
 85e:	f8 94       	cli

00000860 <__stop_program>:
 860:	ff cf       	rjmp	.-2      	; 0x860 <__stop_program>

Disassembly of section .bss:

00800112 <next_state>:
	...

00800113 <cur_state>:
	...

00800114 <turbo_pin_table>:
	...

0080011c <tmp_pin_table>:
	...

00800124 <output_pin_profiles>:
	...

00800164 <turbo_counter.0>:
	...

00800165 <blink_counter.1>:
	...

00800166 <prog_held_counter.2>:
	...

00800168 <blinks>:
	...

00800169 <ct0>:
	...

0080016b <ct1>:
	...

0080016d <key_press>:
	...

0080016f <key_state>:
	...

00800171 <internal_counter>:
	...

